:020000040800F2
:1000000000000220550200085302000851020008B7
:1000100051020008510200085102000800000000CF
:100020000000000000000000000000005302000873
:1000300053020008000000005302000853020008A9
:100040005102000851020008510200085102000844
:100050005102000851020008510200085102000834
:100060005102000851020008510200085102000824
:100070005102000851020008510200085102000814
:100080005102000851020008510200085102000804
:1000900051020008510200085102000851020008F4
:1000A00051020008510200085102000851020008E4
:1000B00051020008510200085102000851020008D4
:1000C00051020008510200085102000851020008C4
:1000D00051020008510200085102000851020008B4
:1000E00051020008510200085102000851020008A4
:1000F0005102000851020008510200085102000894
:100100005102000851020008510200085102000883
:100110005102000851020008510200085102000873
:100120005102000851020008510200085102000863
:100130005102000851020008510200085102000853
:100140005102000851020008510200085102000843
:100150005102000851020008510200085102000833
:100160005102000851020008510200085102000823
:100170005102000851020008510200085102000813
:100180005102000851020008510200085102000803
:1001900051020008510200085102000851020008F3
:1001A00051020008510200085102000810B54FF436
:1001B000C06000F040F82023002201210648064CD0
:1001C00000F017F82021204600F00AF8034B00BF8A
:1001D000013BFCD1F6E700BF0000024040420F00A7
:1001E000436901EA030221EA030141EA0241816114
:1001F00070472DE9F0410568C46800264FF0030EF2
:1002000043FA06F7FF070FD577000EFA07FC6FEAEF
:100210000C0C01FA07F80CEA05050CEA040402FAD2
:1002200007F748EA05053C430136102EE8D1056082
:10023000C460BDE8F081430903F1804303F50E3348
:1002400000F01F02196801209040084318607047B1
:10025000FEE7704738B51A4A1A4B1B498B421BD32D
:100260001A4A002193421CD3194A1A4C13681A4D9A
:1002700043F400731360536F43F470035367AC424D
:1002800012D3164C164DAC4212D3FFF78FFF154C0C
:10029000154DAC4210D338BD52F8040B43F8040B93
:1002A000DCE743F8041BDDE754F8043B9847E6E736
:1002B00054F8043B9847E6E754F8043B9847E8E7CE
:1002C000EC020008000000200000002000000020D8
:1002D00014ED00E0EC020008EC020008EC0200085B
:0C02E000EC020008EC020008EC02000830
:040000050800025598
:00000001FF
